{
  "_format": "hh-sol-artifact-1",
  "contractName": "OnchainSVGNFT",
  "sourceName": "contracts/OnchainSVGNFT.sol",
  "abi": [
    {
      "inputs": [],
      "stateMutability": "nonpayable",
      "type": "constructor"
    },
    {
      "inputs": [
        {
          "internalType": "address",
          "name": "sender",
          "type": "address"
        },
        {
          "internalType": "uint256",
          "name": "tokenId",
          "type": "uint256"
        },
        {
          "internalType": "address",
          "name": "owner",
          "type": "address"
        }
      ],
      "name": "ERC721IncorrectOwner",
      "type": "error"
    },
    {
      "inputs": [
        {
          "internalType": "address",
          "name": "operator",
          "type": "address"
        },
        {
          "internalType": "uint256",
          "name": "tokenId",
          "type": "uint256"
        }
      ],
      "name": "ERC721InsufficientApproval",
      "type": "error"
    },
    {
      "inputs": [
        {
          "internalType": "address",
          "name": "approver",
          "type": "address"
        }
      ],
      "name": "ERC721InvalidApprover",
      "type": "error"
    },
    {
      "inputs": [
        {
          "internalType": "address",
          "name": "operator",
          "type": "address"
        }
      ],
      "name": "ERC721InvalidOperator",
      "type": "error"
    },
    {
      "inputs": [
        {
          "internalType": "address",
          "name": "owner",
          "type": "address"
        }
      ],
      "name": "ERC721InvalidOwner",
      "type": "error"
    },
    {
      "inputs": [
        {
          "internalType": "address",
          "name": "receiver",
          "type": "address"
        }
      ],
      "name": "ERC721InvalidReceiver",
      "type": "error"
    },
    {
      "inputs": [
        {
          "internalType": "address",
          "name": "sender",
          "type": "address"
        }
      ],
      "name": "ERC721InvalidSender",
      "type": "error"
    },
    {
      "inputs": [
        {
          "internalType": "uint256",
          "name": "tokenId",
          "type": "uint256"
        }
      ],
      "name": "ERC721NonexistentToken",
      "type": "error"
    },
    {
      "anonymous": false,
      "inputs": [
        {
          "indexed": true,
          "internalType": "address",
          "name": "owner",
          "type": "address"
        },
        {
          "indexed": true,
          "internalType": "address",
          "name": "approved",
          "type": "address"
        },
        {
          "indexed": true,
          "internalType": "uint256",
          "name": "tokenId",
          "type": "uint256"
        }
      ],
      "name": "Approval",
      "type": "event"
    },
    {
      "anonymous": false,
      "inputs": [
        {
          "indexed": true,
          "internalType": "address",
          "name": "owner",
          "type": "address"
        },
        {
          "indexed": true,
          "internalType": "address",
          "name": "operator",
          "type": "address"
        },
        {
          "indexed": false,
          "internalType": "bool",
          "name": "approved",
          "type": "bool"
        }
      ],
      "name": "ApprovalForAll",
      "type": "event"
    },
    {
      "anonymous": false,
      "inputs": [
        {
          "indexed": false,
          "internalType": "uint256",
          "name": "_fromTokenId",
          "type": "uint256"
        },
        {
          "indexed": false,
          "internalType": "uint256",
          "name": "_toTokenId",
          "type": "uint256"
        }
      ],
      "name": "BatchMetadataUpdate",
      "type": "event"
    },
    {
      "anonymous": false,
      "inputs": [
        {
          "indexed": false,
          "internalType": "uint256",
          "name": "_tokenId",
          "type": "uint256"
        }
      ],
      "name": "MetadataUpdate",
      "type": "event"
    },
    {
      "anonymous": false,
      "inputs": [
        {
          "indexed": true,
          "internalType": "address",
          "name": "from",
          "type": "address"
        },
        {
          "indexed": true,
          "internalType": "address",
          "name": "to",
          "type": "address"
        },
        {
          "indexed": true,
          "internalType": "uint256",
          "name": "tokenId",
          "type": "uint256"
        }
      ],
      "name": "Transfer",
      "type": "event"
    },
    {
      "inputs": [
        {
          "internalType": "address",
          "name": "to",
          "type": "address"
        },
        {
          "internalType": "uint256",
          "name": "tokenId",
          "type": "uint256"
        }
      ],
      "name": "approve",
      "outputs": [],
      "stateMutability": "nonpayable",
      "type": "function"
    },
    {
      "inputs": [
        {
          "internalType": "address",
          "name": "owner",
          "type": "address"
        }
      ],
      "name": "balanceOf",
      "outputs": [
        {
          "internalType": "uint256",
          "name": "",
          "type": "uint256"
        }
      ],
      "stateMutability": "view",
      "type": "function"
    },
    {
      "inputs": [
        {
          "internalType": "uint256",
          "name": "tokenId",
          "type": "uint256"
        }
      ],
      "name": "getApproved",
      "outputs": [
        {
          "internalType": "address",
          "name": "",
          "type": "address"
        }
      ],
      "stateMutability": "view",
      "type": "function"
    },
    {
      "inputs": [
        {
          "internalType": "address",
          "name": "owner",
          "type": "address"
        },
        {
          "internalType": "address",
          "name": "operator",
          "type": "address"
        }
      ],
      "name": "isApprovedForAll",
      "outputs": [
        {
          "internalType": "bool",
          "name": "",
          "type": "bool"
        }
      ],
      "stateMutability": "view",
      "type": "function"
    },
    {
      "inputs": [
        {
          "internalType": "address",
          "name": "to",
          "type": "address"
        },
        {
          "internalType": "string",
          "name": "svgImage",
          "type": "string"
        }
      ],
      "name": "mintNFT",
      "outputs": [
        {
          "internalType": "uint256",
          "name": "",
          "type": "uint256"
        }
      ],
      "stateMutability": "nonpayable",
      "type": "function"
    },
    {
      "inputs": [],
      "name": "name",
      "outputs": [
        {
          "internalType": "string",
          "name": "",
          "type": "string"
        }
      ],
      "stateMutability": "view",
      "type": "function"
    },
    {
      "inputs": [
        {
          "internalType": "uint256",
          "name": "tokenId",
          "type": "uint256"
        }
      ],
      "name": "ownerOf",
      "outputs": [
        {
          "internalType": "address",
          "name": "",
          "type": "address"
        }
      ],
      "stateMutability": "view",
      "type": "function"
    },
    {
      "inputs": [
        {
          "internalType": "address",
          "name": "from",
          "type": "address"
        },
        {
          "internalType": "address",
          "name": "to",
          "type": "address"
        },
        {
          "internalType": "uint256",
          "name": "tokenId",
          "type": "uint256"
        }
      ],
      "name": "safeTransferFrom",
      "outputs": [],
      "stateMutability": "nonpayable",
      "type": "function"
    },
    {
      "inputs": [
        {
          "internalType": "address",
          "name": "from",
          "type": "address"
        },
        {
          "internalType": "address",
          "name": "to",
          "type": "address"
        },
        {
          "internalType": "uint256",
          "name": "tokenId",
          "type": "uint256"
        },
        {
          "internalType": "bytes",
          "name": "data",
          "type": "bytes"
        }
      ],
      "name": "safeTransferFrom",
      "outputs": [],
      "stateMutability": "nonpayable",
      "type": "function"
    },
    {
      "inputs": [
        {
          "internalType": "address",
          "name": "operator",
          "type": "address"
        },
        {
          "internalType": "bool",
          "name": "approved",
          "type": "bool"
        }
      ],
      "name": "setApprovalForAll",
      "outputs": [],
      "stateMutability": "nonpayable",
      "type": "function"
    },
    {
      "inputs": [
        {
          "internalType": "bytes4",
          "name": "interfaceId",
          "type": "bytes4"
        }
      ],
      "name": "supportsInterface",
      "outputs": [
        {
          "internalType": "bool",
          "name": "",
          "type": "bool"
        }
      ],
      "stateMutability": "view",
      "type": "function"
    },
    {
      "inputs": [],
      "name": "symbol",
      "outputs": [
        {
          "internalType": "string",
          "name": "",
          "type": "string"
        }
      ],
      "stateMutability": "view",
      "type": "function"
    },
    {
      "inputs": [
        {
          "internalType": "uint256",
          "name": "tokenId",
          "type": "uint256"
        }
      ],
      "name": "tokenURI",
      "outputs": [
        {
          "internalType": "string",
          "name": "",
          "type": "string"
        }
      ],
      "stateMutability": "view",
      "type": "function"
    },
    {
      "inputs": [
        {
          "internalType": "address",
          "name": "from",
          "type": "address"
        },
        {
          "internalType": "address",
          "name": "to",
          "type": "address"
        },
        {
          "internalType": "uint256",
          "name": "tokenId",
          "type": "uint256"
        }
      ],
      "name": "transferFrom",
      "outputs": [],
      "stateMutability": "nonpayable",
      "type": "function"
    }
  ],
  "bytecode": "0x608060405234801561001057600080fd5b506040518060400160405280600d81526020017f4f6e636861696e5356474e4654000000000000000000000000000000000000008152506040518060400160405280600381526020017f5356470000000000000000000000000000000000000000000000000000000000815250816000908161008c91906102fc565b50806001908161009c91906102fc565b50505060006007819055506103ce565b600081519050919050565b7f4e487b7100000000000000000000000000000000000000000000000000000000600052604160045260246000fd5b7f4e487b7100000000000000000000000000000000000000000000000000000000600052602260045260246000fd5b6000600282049050600182168061012d57607f821691505b6020821081036101405761013f6100e6565b5b50919050565b60008190508160005260206000209050919050565b60006020601f8301049050919050565b600082821b905092915050565b6000600883026101a87fffffffffffffffffffffffffffffffffffffffffffffffffffffffffffffffff8261016b565b6101b2868361016b565b95508019841693508086168417925050509392505050565b6000819050919050565b6000819050919050565b60006101f96101f46101ef846101ca565b6101d4565b6101ca565b9050919050565b6000819050919050565b610213836101de565b61022761021f82610200565b848454610178565b825550505050565b600090565b61023c61022f565b61024781848461020a565b505050565b5b8181101561026b57610260600082610234565b60018101905061024d565b5050565b601f8211156102b05761028181610146565b61028a8461015b565b81016020851015610299578190505b6102ad6102a58561015b565b83018261024c565b50505b505050565b600082821c905092915050565b60006102d3600019846008026102b5565b1980831691505092915050565b60006102ec83836102c2565b9150826002028217905092915050565b610305826100ac565b67ffffffffffffffff81111561031e5761031d6100b7565b5b6103288254610115565b61033382828561026f565b600060209050601f8311600181146103665760008415610354578287015190505b61035e85826102e0565b8655506103c6565b601f19841661037486610146565b60005b8281101561039c57848901518255600182019150602085019450602081019050610377565b868310156103b957848901516103b5601f8916826102c2565b8355505b6001600288020188555050505b505050505050565b612aa9806103dd6000396000f3fe608060405234801561001057600080fd5b50600436106100ea5760003560e01c806370a082311161008c578063b88d4fde11610066578063b88d4fde1461025b578063c87b56dd14610277578063e985e9c5146102a7578063eacabe14146102d7576100ea565b806370a08231146101f157806395d89b4114610221578063a22cb4651461023f576100ea565b8063095ea7b3116100c8578063095ea7b31461016d57806323b872dd1461018957806342842e0e146101a55780636352211e146101c1576100ea565b806301ffc9a7146100ef57806306fdde031461011f578063081812fc1461013d575b600080fd5b61010960048036038101906101049190611ba3565b610307565b6040516101169190611beb565b60405180910390f35b610127610368565b6040516101349190611c96565b60405180910390f35b61015760048036038101906101529190611cee565b6103fa565b6040516101649190611d5c565b60405180910390f35b61018760048036038101906101829190611da3565b610416565b005b6101a3600480360381019061019e9190611de3565b61042c565b005b6101bf60048036038101906101ba9190611de3565b61052e565b005b6101db60048036038101906101d69190611cee565b61054e565b6040516101e89190611d5c565b60405180910390f35b61020b60048036038101906102069190611e36565b610560565b6040516102189190611e72565b60405180910390f35b61022961061a565b6040516102369190611c96565b60405180910390f35b61025960048036038101906102549190611eb9565b6106ac565b005b6102756004803603810190610270919061202e565b6106c2565b005b610291600480360381019061028c9190611cee565b6106e7565b60405161029e9190611c96565b60405180910390f35b6102c160048036038101906102bc91906120b1565b6107fa565b6040516102ce9190611beb565b60405180910390f35b6102f160048036038101906102ec9190612192565b61088e565b6040516102fe9190611e72565b60405180910390f35b6000634906490660e01b7bffffffffffffffffffffffffffffffffffffffffffffffffffffffff1916827bffffffffffffffffffffffffffffffffffffffffffffffffffffffff19161480610361575061036082610934565b5b9050919050565b6060600080546103779061221d565b80601f01602080910402602001604051908101604052809291908181526020018280546103a39061221d565b80156103f05780601f106103c5576101008083540402835291602001916103f0565b820191906000526020600020905b8154815290600101906020018083116103d357829003601f168201915b5050505050905090565b600061040582610a16565b5061040f82610a9e565b9050919050565b6104288282610423610adb565b610ae3565b5050565b600073ffffffffffffffffffffffffffffffffffffffff168273ffffffffffffffffffffffffffffffffffffffff160361049e5760006040517f64a0ae920000000000000000000000000000000000000000000000000000000081526004016104959190611d5c565b60405180910390fd5b60006104b283836104ad610adb565b610af5565b90508373ffffffffffffffffffffffffffffffffffffffff168173ffffffffffffffffffffffffffffffffffffffff1614610528578382826040517f64283d7b00000000000000000000000000000000000000000000000000000000815260040161051f9392919061224e565b60405180910390fd5b50505050565b610549838383604051806020016040528060008152506106c2565b505050565b600061055982610a16565b9050919050565b60008073ffffffffffffffffffffffffffffffffffffffff168273ffffffffffffffffffffffffffffffffffffffff16036105d35760006040517f89c62b640000000000000000000000000000000000000000000000000000000081526004016105ca9190611d5c565b60405180910390fd5b600360008373ffffffffffffffffffffffffffffffffffffffff1673ffffffffffffffffffffffffffffffffffffffff168152602001908152602001600020549050919050565b6060600180546106299061221d565b80601f01602080910402602001604051908101604052809291908181526020018280546106559061221d565b80156106a25780601f10610677576101008083540402835291602001916106a2565b820191906000526020600020905b81548152906001019060200180831161068557829003601f168201915b5050505050905090565b6106be6106b7610adb565b8383610d0f565b5050565b6106cd84848461042c565b6106e16106d8610adb565b85858585610e7e565b50505050565b60606106f282610a16565b5060006006600084815260200190815260200160002080546107139061221d565b80601f016020809104026020016040519081016040528092919081815260200182805461073f9061221d565b801561078c5780601f106107615761010080835404028352916020019161078c565b820191906000526020600020905b81548152906001019060200180831161076f57829003601f168201915b50505050509050600061079d61102f565b905060008151036107b25781925050506107f5565b6000825111156107e75780826040516020016107cf9291906122c1565b604051602081830303815290604052925050506107f5565b6107f084611046565b925050505b919050565b6000600560008473ffffffffffffffffffffffffffffffffffffffff1673ffffffffffffffffffffffffffffffffffffffff16815260200190815260200160002060008373ffffffffffffffffffffffffffffffffffffffff1673ffffffffffffffffffffffffffffffffffffffff16815260200190815260200160002060009054906101000a900460ff16905092915050565b6000600160075461089f9190612314565b600781905550600060075490506108b684826110af565b60006108c1846111a8565b905060006108ce836111d5565b826040516020016108e0929190612478565b604051602081830303815290604052905060006108fc826111a8565b60405160200161090c9190612509565b60405160208183030381529060405290506109278482611335565b8394505050505092915050565b60007f80ac58cd000000000000000000000000000000000000000000000000000000007bffffffffffffffffffffffffffffffffffffffffffffffffffffffff1916827bffffffffffffffffffffffffffffffffffffffffffffffffffffffff191614806109ff57507f5b5e139f000000000000000000000000000000000000000000000000000000007bffffffffffffffffffffffffffffffffffffffffffffffffffffffff1916827bffffffffffffffffffffffffffffffffffffffffffffffffffffffff1916145b80610a0f5750610a0e82611391565b5b9050919050565b600080610a22836113fb565b9050600073ffffffffffffffffffffffffffffffffffffffff168173ffffffffffffffffffffffffffffffffffffffff1603610a9557826040517f7e273289000000000000000000000000000000000000000000000000000000008152600401610a8c9190611e72565b60405180910390fd5b80915050919050565b60006004600083815260200190815260200160002060009054906101000a900473ffffffffffffffffffffffffffffffffffffffff169050919050565b600033905090565b610af08383836001611438565b505050565b600080610b01846113fb565b9050600073ffffffffffffffffffffffffffffffffffffffff168373ffffffffffffffffffffffffffffffffffffffff1614610b4357610b428184866115fd565b5b600073ffffffffffffffffffffffffffffffffffffffff168173ffffffffffffffffffffffffffffffffffffffff1614610bd457610b85600085600080611438565b6001600360008373ffffffffffffffffffffffffffffffffffffffff1673ffffffffffffffffffffffffffffffffffffffff168152602001908152602001600020600082825403925050819055505b600073ffffffffffffffffffffffffffffffffffffffff168573ffffffffffffffffffffffffffffffffffffffff1614610c57576001600360008773ffffffffffffffffffffffffffffffffffffffff1673ffffffffffffffffffffffffffffffffffffffff168152602001908152602001600020600082825401925050819055505b846002600086815260200190815260200160002060006101000a81548173ffffffffffffffffffffffffffffffffffffffff021916908373ffffffffffffffffffffffffffffffffffffffff160217905550838573ffffffffffffffffffffffffffffffffffffffff168273ffffffffffffffffffffffffffffffffffffffff167fddf252ad1be2c89b69c2b068fc378daa952ba7f163c4a11628f55a4df523b3ef60405160405180910390a4809150509392505050565b600073ffffffffffffffffffffffffffffffffffffffff168273ffffffffffffffffffffffffffffffffffffffff1603610d8057816040517f5b08ba18000000000000000000000000000000000000000000000000000000008152600401610d779190611d5c565b60405180910390fd5b80600560008573ffffffffffffffffffffffffffffffffffffffff1673ffffffffffffffffffffffffffffffffffffffff16815260200190815260200160002060008473ffffffffffffffffffffffffffffffffffffffff1673ffffffffffffffffffffffffffffffffffffffff16815260200190815260200160002060006101000a81548160ff0219169083151502179055508173ffffffffffffffffffffffffffffffffffffffff168373ffffffffffffffffffffffffffffffffffffffff167f17307eab39ab6107e8899845ad3d59bd9653f200f220920489ca2b5937696c3183604051610e719190611beb565b60405180910390a3505050565b60008373ffffffffffffffffffffffffffffffffffffffff163b1115611028578273ffffffffffffffffffffffffffffffffffffffff1663150b7a02868685856040518563ffffffff1660e01b8152600401610edd9493929190612580565b6020604051808303816000875af1925050508015610f1957506040513d601f19601f82011682018060405250810190610f1691906125e1565b60015b610f9d573d8060008114610f49576040519150601f19603f3d011682016040523d82523d6000602084013e610f4e565b606091505b506000815103610f9557836040517f64a0ae92000000000000000000000000000000000000000000000000000000008152600401610f8c9190611d5c565b60405180910390fd5b805181602001fd5b63150b7a0260e01b7bffffffffffffffffffffffffffffffffffffffffffffffffffffffff1916817bffffffffffffffffffffffffffffffffffffffffffffffffffffffff19161461102657836040517f64a0ae9200000000000000000000000000000000000000000000000000000000815260040161101d9190611d5c565b60405180910390fd5b505b5050505050565b606060405180602001604052806000815250905090565b606061105182610a16565b50600061105c61102f565b9050600081511161107c57604051806020016040528060008152506110a7565b80611086846116c1565b6040516020016110979291906122c1565b6040516020818303038152906040525b915050919050565b600073ffffffffffffffffffffffffffffffffffffffff168273ffffffffffffffffffffffffffffffffffffffff16036111215760006040517f64a0ae920000000000000000000000000000000000000000000000000000000081526004016111189190611d5c565b60405180910390fd5b600061112f83836000610af5565b9050600073ffffffffffffffffffffffffffffffffffffffff168173ffffffffffffffffffffffffffffffffffffffff16146111a35760006040517f73c6ac6e00000000000000000000000000000000000000000000000000000000815260040161119a9190611d5c565b60405180910390fd5b505050565b60606111ce82604051806060016040528060408152602001612a3460409139600161178f565b9050919050565b60606000820361121c576040518060400160405280600181526020017f30000000000000000000000000000000000000000000000000000000000000008152509050611330565b600082905060005b6000821461124e5780806112379061260e565b915050600a826112479190612685565b9150611224565b60008167ffffffffffffffff81111561126a57611269611f03565b5b6040519080825280601f01601f19166020018201604052801561129c5781602001600182028036833780820191505090505b5090505b60008514611329576001826112b591906126b6565b9150600a856112c491906126ea565b60306112d09190612314565b60f81b8183815181106112e6576112e561271b565b5b60200101907effffffffffffffffffffffffffffffffffffffffffffffffffffffffffffff1916908160001a905350600a856113229190612685565b94506112a0565b8093505050505b919050565b8060066000848152602001908152602001600020908161135591906128f6565b507ff8e1a15aba9398e019f0b49df1a4fde98ee17ae345cb5f6b5e2c27f5033e8ce7826040516113859190611e72565b60405180910390a15050565b60007f01ffc9a7000000000000000000000000000000000000000000000000000000007bffffffffffffffffffffffffffffffffffffffffffffffffffffffff1916827bffffffffffffffffffffffffffffffffffffffffffffffffffffffff1916149050919050565b60006002600083815260200190815260200160002060009054906101000a900473ffffffffffffffffffffffffffffffffffffffff169050919050565b80806114715750600073ffffffffffffffffffffffffffffffffffffffff168273ffffffffffffffffffffffffffffffffffffffff1614155b156115a557600061148184610a16565b9050600073ffffffffffffffffffffffffffffffffffffffff168373ffffffffffffffffffffffffffffffffffffffff16141580156114ec57508273ffffffffffffffffffffffffffffffffffffffff168173ffffffffffffffffffffffffffffffffffffffff1614155b80156114ff57506114fd81846107fa565b155b1561154157826040517fa9fbf51f0000000000000000000000000000000000000000000000000000000081526004016115389190611d5c565b60405180910390fd5b81156115a357838573ffffffffffffffffffffffffffffffffffffffff168273ffffffffffffffffffffffffffffffffffffffff167f8c5be1e5ebec7d5bd14f71427d1e84f3dd0314c0f7b2291e5b200ac8c7c3b92560405160405180910390a45b505b836004600085815260200190815260200160002060006101000a81548173ffffffffffffffffffffffffffffffffffffffff021916908373ffffffffffffffffffffffffffffffffffffffff16021790555050505050565b611608838383611923565b6116bc57600073ffffffffffffffffffffffffffffffffffffffff168373ffffffffffffffffffffffffffffffffffffffff160361167d57806040517f7e2732890000000000000000000000000000000000000000000000000000000081526004016116749190611e72565b60405180910390fd5b81816040517f177e802f0000000000000000000000000000000000000000000000000000000081526004016116b39291906129c8565b60405180910390fd5b505050565b6060600060016116d0846119e4565b01905060008167ffffffffffffffff8111156116ef576116ee611f03565b5b6040519080825280601f01601f1916602001820160405280156117215781602001600182028036833780820191505090505b509050600082602001820190505b600115611784578080600190039150507f3031323334353637383961626364656600000000000000000000000000000000600a86061a8153600a858161177857611777612656565b5b0494506000850361172f575b819350505050919050565b606060008451036117b15760405180602001604052806000815250905061191c565b6000826117e35760036002865160046117ca91906129f1565b6117d49190612314565b6117de9190612685565b61180a565b6003600286516117f39190612314565b6117fd9190612685565b600461180991906129f1565b5b905060008167ffffffffffffffff81111561182857611827611f03565b5b6040519080825280601f01601f19166020018201604052801561185a5781602001600182028036833780820191505090505b50905060018501602082018788518901602081018051600082525b828410156118d0576003840193508351603f8160121c168701518653600186019550603f81600c1c168701518653600186019550603f8160061c168701518653600186019550603f8116870151865360018601955050611875565b80825289156119105760038c5106600181146118f357600281146119065761190e565b603d6001870353603d600287035361190e565b603d60018703535b505b50505050505080925050505b9392505050565b60008073ffffffffffffffffffffffffffffffffffffffff168373ffffffffffffffffffffffffffffffffffffffff16141580156119db57508273ffffffffffffffffffffffffffffffffffffffff168473ffffffffffffffffffffffffffffffffffffffff16148061199c575061199b84846107fa565b5b806119da57508273ffffffffffffffffffffffffffffffffffffffff166119c283610a9e565b73ffffffffffffffffffffffffffffffffffffffff16145b5b90509392505050565b600080600090507a184f03e93ff9f4daa797ed6e38ed64bf6a1f0100000000000000008310611a42577a184f03e93ff9f4daa797ed6e38ed64bf6a1f0100000000000000008381611a3857611a37612656565b5b0492506040810190505b6d04ee2d6d415b85acef81000000008310611a7f576d04ee2d6d415b85acef81000000008381611a7557611a74612656565b5b0492506020810190505b662386f26fc100008310611aae57662386f26fc100008381611aa457611aa3612656565b5b0492506010810190505b6305f5e1008310611ad7576305f5e1008381611acd57611acc612656565b5b0492506008810190505b6127108310611afc576127108381611af257611af1612656565b5b0492506004810190505b60648310611b1f5760648381611b1557611b14612656565b5b0492506002810190505b600a8310611b2e576001810190505b80915050919050565b6000604051905090565b600080fd5b600080fd5b60007fffffffff0000000000000000000000000000000000000000000000000000000082169050919050565b611b8081611b4b565b8114611b8b57600080fd5b50565b600081359050611b9d81611b77565b92915050565b600060208284031215611bb957611bb8611b41565b5b6000611bc784828501611b8e565b91505092915050565b60008115159050919050565b611be581611bd0565b82525050565b6000602082019050611c006000830184611bdc565b92915050565b600081519050919050565b600082825260208201905092915050565b60005b83811015611c40578082015181840152602081019050611c25565b60008484015250505050565b6000601f19601f8301169050919050565b6000611c6882611c06565b611c728185611c11565b9350611c82818560208601611c22565b611c8b81611c4c565b840191505092915050565b60006020820190508181036000830152611cb08184611c5d565b905092915050565b6000819050919050565b611ccb81611cb8565b8114611cd657600080fd5b50565b600081359050611ce881611cc2565b92915050565b600060208284031215611d0457611d03611b41565b5b6000611d1284828501611cd9565b91505092915050565b600073ffffffffffffffffffffffffffffffffffffffff82169050919050565b6000611d4682611d1b565b9050919050565b611d5681611d3b565b82525050565b6000602082019050611d716000830184611d4d565b92915050565b611d8081611d3b565b8114611d8b57600080fd5b50565b600081359050611d9d81611d77565b92915050565b60008060408385031215611dba57611db9611b41565b5b6000611dc885828601611d8e565b9250506020611dd985828601611cd9565b9150509250929050565b600080600060608486031215611dfc57611dfb611b41565b5b6000611e0a86828701611d8e565b9350506020611e1b86828701611d8e565b9250506040611e2c86828701611cd9565b9150509250925092565b600060208284031215611e4c57611e4b611b41565b5b6000611e5a84828501611d8e565b91505092915050565b611e6c81611cb8565b82525050565b6000602082019050611e876000830184611e63565b92915050565b611e9681611bd0565b8114611ea157600080fd5b50565b600081359050611eb381611e8d565b92915050565b60008060408385031215611ed057611ecf611b41565b5b6000611ede85828601611d8e565b9250506020611eef85828601611ea4565b9150509250929050565b600080fd5b600080fd5b7f4e487b7100000000000000000000000000000000000000000000000000000000600052604160045260246000fd5b611f3b82611c4c565b810181811067ffffffffffffffff82111715611f5a57611f59611f03565b5b80604052505050565b6000611f6d611b37565b9050611f798282611f32565b919050565b600067ffffffffffffffff821115611f9957611f98611f03565b5b611fa282611c4c565b9050602081019050919050565b82818337600083830152505050565b6000611fd1611fcc84611f7e565b611f63565b905082815260208101848484011115611fed57611fec611efe565b5b611ff8848285611faf565b509392505050565b600082601f83011261201557612014611ef9565b5b8135612025848260208601611fbe565b91505092915050565b6000806000806080858703121561204857612047611b41565b5b600061205687828801611d8e565b945050602061206787828801611d8e565b935050604061207887828801611cd9565b925050606085013567ffffffffffffffff81111561209957612098611b46565b5b6120a587828801612000565b91505092959194509250565b600080604083850312156120c8576120c7611b41565b5b60006120d685828601611d8e565b92505060206120e785828601611d8e565b9150509250929050565b600067ffffffffffffffff82111561210c5761210b611f03565b5b61211582611c4c565b9050602081019050919050565b6000612135612130846120f1565b611f63565b90508281526020810184848401111561215157612150611efe565b5b61215c848285611faf565b509392505050565b600082601f83011261217957612178611ef9565b5b8135612189848260208601612122565b91505092915050565b600080604083850312156121a9576121a8611b41565b5b60006121b785828601611d8e565b925050602083013567ffffffffffffffff8111156121d8576121d7611b46565b5b6121e485828601612164565b9150509250929050565b7f4e487b7100000000000000000000000000000000000000000000000000000000600052602260045260246000fd5b6000600282049050600182168061223557607f821691505b602082108103612248576122476121ee565b5b50919050565b60006060820190506122636000830186611d4d565b6122706020830185611e63565b61227d6040830184611d4d565b949350505050565b600081905092915050565b600061229b82611c06565b6122a58185612285565b93506122b5818560208601611c22565b80840191505092915050565b60006122cd8285612290565b91506122d98284612290565b91508190509392505050565b7f4e487b7100000000000000000000000000000000000000000000000000000000600052601160045260246000fd5b600061231f82611cb8565b915061232a83611cb8565b9250828201905080821115612342576123416122e5565b5b92915050565b7f7b226e616d65223a20224f6e636861696e205356472023000000000000000000600082015250565b600061237e601783612285565b915061238982612348565b601782019050919050565b7f222c20226465736372697074696f6e223a2022416e204e46542077697468206160008201527f6e206f6e636861696e2053564720696d616765222c2022696d616765223a202260208201527f646174613a696d6167652f7376672b786d6c3b6261736536342c000000000000604082015250565b6000612416605a83612285565b915061242182612394565b605a82019050919050565b7f227d000000000000000000000000000000000000000000000000000000000000600082015250565b6000612462600283612285565b915061246d8261242c565b600282019050919050565b600061248382612371565b915061248f8285612290565b915061249a82612409565b91506124a68284612290565b91506124b182612455565b91508190509392505050565b7f646174613a6170706c69636174696f6e2f6a736f6e3b6261736536342c000000600082015250565b60006124f3601d83612285565b91506124fe826124bd565b601d82019050919050565b6000612514826124e6565b91506125208284612290565b915081905092915050565b600081519050919050565b600082825260208201905092915050565b60006125528261252b565b61255c8185612536565b935061256c818560208601611c22565b61257581611c4c565b840191505092915050565b60006080820190506125956000830187611d4d565b6125a26020830186611d4d565b6125af6040830185611e63565b81810360608301526125c18184612547565b905095945050505050565b6000815190506125db81611b77565b92915050565b6000602082840312156125f7576125f6611b41565b5b6000612605848285016125cc565b91505092915050565b600061261982611cb8565b91507fffffffffffffffffffffffffffffffffffffffffffffffffffffffffffffffff820361264b5761264a6122e5565b5b600182019050919050565b7f4e487b7100000000000000000000000000000000000000000000000000000000600052601260045260246000fd5b600061269082611cb8565b915061269b83611cb8565b9250826126ab576126aa612656565b5b828204905092915050565b60006126c182611cb8565b91506126cc83611cb8565b92508282039050818111156126e4576126e36122e5565b5b92915050565b60006126f582611cb8565b915061270083611cb8565b9250826127105761270f612656565b5b828206905092915050565b7f4e487b7100000000000000000000000000000000000000000000000000000000600052603260045260246000fd5b60008190508160005260206000209050919050565b60006020601f8301049050919050565b600082821b905092915050565b6000600883026127ac7fffffffffffffffffffffffffffffffffffffffffffffffffffffffffffffffff8261276f565b6127b6868361276f565b95508019841693508086168417925050509392505050565b6000819050919050565b60006127f36127ee6127e984611cb8565b6127ce565b611cb8565b9050919050565b6000819050919050565b61280d836127d8565b612821612819826127fa565b84845461277c565b825550505050565b600090565b612836612829565b612841818484612804565b505050565b5b818110156128655761285a60008261282e565b600181019050612847565b5050565b601f8211156128aa5761287b8161274a565b6128848461275f565b81016020851015612893578190505b6128a761289f8561275f565b830182612846565b50505b505050565b600082821c905092915050565b60006128cd600019846008026128af565b1980831691505092915050565b60006128e683836128bc565b9150826002028217905092915050565b6128ff82611c06565b67ffffffffffffffff81111561291857612917611f03565b5b612922825461221d565b61292d828285612869565b600060209050601f831160018114612960576000841561294e578287015190505b61295885826128da565b8655506129c0565b601f19841661296e8661274a565b60005b8281101561299657848901518255600182019150602085019450602081019050612971565b868310156129b357848901516129af601f8916826128bc565b8355505b6001600288020188555050505b505050505050565b60006040820190506129dd6000830185611d4d565b6129ea6020830184611e63565b9392505050565b60006129fc82611cb8565b9150612a0783611cb8565b9250828202612a1581611cb8565b91508282048414831517612a2c57612a2b6122e5565b5b509291505056fe4142434445464748494a4b4c4d4e4f505152535455565758595a6162636465666768696a6b6c6d6e6f707172737475767778797a303132333435363738392b2fa26469706673582212203e563fc4f0e0eab9dfb4356c320247174d8d52669b1615e418e277161435894a64736f6c634300081c0033",
  "linkReferences": {},
  "deployedLinkReferences": {}
}